:03001E0025640056
:0E05BB0000007F017EC37D88DDFEDEFCDFFADE
:0105C900220F
:10038200D2AF12056F1205D91205588F0812060254
:100392008F091206088F0A1205BB750EFF750F0032
:1003A20075101EE50824E8F512E43403F5117B010B
:1003B2007A0079001200827B017A00790012059896
:1003C2001205BB750EFF750F0075101EE50924D0CE
:1003D200F512E43407F5117B017A007900120082EC
:1003E2007B017A0079001205981205BB750EFF7524
:1003F2000F0075101EE50A24B8F512E4340BF5114E
:100402007B017A0079001200827B017A0079001266
:05041200059802038AB9
:02060E00C10920
:10056F00759850438E01438E0475D7D575D6FF43CA
:05057F008E10D2AC2239
:030023000205AB28
:1005AB0030980585991FC298309904C299C20932B7
:0805FA002009FDD2098F9922AE
:10059800120417FF600C1205FA740129F9E43AFAFB
:0305A80080EE22C0
:10000300EF1FAA0670011E4A60107C137D88ED1D48
:0A001300AA0470011C4A60E880F4A2
:01001D0022C0
:0805E8007F067E6FDEFEDFFCE2
:0105F00022E8
:0E05CA0000007F017EBD7D4EDDFEDEFCDFFA0F
:0105D8002200
:0805F1007F027E59DEFEDFFCF3
:0105F90022DF
:0F05D900759DF0E4F5BD75BC807F02FE02000346
:10058400EF4488F5BC00000000E5BC30E4FB53BC3C
:04059400EFAFBD22E6
:10055800C2CC1205E87F04120584AC071205F1D25B
:06056800CC1205CAAF042D
:01056E00226A
:060602007F0512058422B1
:060608007F0612058422AA
:030000000204A552
:0C04A500787FE4F6D8FD7581210204EC9C
:10041700BB010689828A83E0225002E722BBFE02E3
:09042700E32289828A83E4932216
:10002600E51A240EF8E6051A22780B300702780E38
:10003600E475F00112046F0204172000EB7F2ED244
:10004600008018EF540F2490D43440D4FF30040BB2
:10005600EF24BFB41A0050032461FFE51B600215AC
:100066001B051EE51E7002051D30070D780BE47595
:10007600F00112046FEF02045D0205317403D2072A
:100086008003E4C207F51A8B0B8A0C890DE4F51B75
:10009600F51DF51EE51B60077F2012006180F575D2
:1000A6001CFFC201C200C202C203C205C206C208C8
:1000B60012002FFF700D3007057F00120072AF1E71
:1000C600AE1D22B4255FC2D5C20412002FFF24D074
:1000D600B40A00501A75F00A781B30D50508B6FF29
:1000E6000106C6A426F620D5047002D20380D924C0
:1000F600CFB41A00EF5004C2E5D204020272D20154
:1001060080C6D20080C0D20280BCD2D580BAD205C9
:1001160080B47F201200612002077401B51B0040E5
:10012600F1120026FF12006102009AD208D2068060
:1001360095120026FB120026FA120026F94A4B7089
:100146000679437A037BFF20022EE51B602A7E0098
:100156008E8275830012043060060EEE651C70F008
:10016600C2D5EBC0E0EAC0E0E9C0E0EE1202B9D0C9
:10017600E0F9D0E0FAD0E0FB120417FF60AAEBC06A
:10018600E0EAC0E0E9C0E0120061D0E02401F9D065
:10019600E03400FAD0E0FBE51C0460DCD51CD98015
:1001A600877BFF7A0279B5D202809C79108002792A
:1001B60008C206C2088008D2D5790A8004790AC224
:1001C600D5E51C047002F51CE4FAFDFEFF120026BC
:1001D600FC7B08200113120026FD7B1030000A125A
:1001E6000026FE120026FF7B20EC3382D592D550E6
:1001F60013C3E43000069FFFE49EFEE42001039D46
:10020600FDE49CFCE4CBF8C201EC700CCFCECDCC67
:10021600E824F8F870F38017C3EF33FFEE33FEEDF2
:1002260033FDEC33FCEB33FB994002FB0FD8E9EBD3
:10023600300105F8D0E0C448B201C0E00AEC4D4EEA
:100246004F78207B0070C2EAB51C0040BCC0E012AB
:1002560002BBD0F0D0E0200104C4C0E0C4B201C0AB
:10026600F012004AD0F0D5F0EB02009A12047F019A
:10027600375301B15801084C01044201B54F01BD85
:0F0286004401BD49011D4301C35501A74601A70E
:100295004501A747036350010C2D01102E01332B97
:1002A500011423013120034C2A00CC480000012B06
:1002B5003F3F3F00790AA2D5200314300509B91044
:1002C500020404B9080104A2D52006025001042045
:1002D50002689202B51B005034C0E07F203003193C
:1002E5007F30A20272067205500F120312C202C2BB
:1002F50006C205C2087F30800F300503E9C0E01251
:100305000061300503D0E0F9D0E0B51BCC3005170E
:100315007F30B9100C1200617F583004077F788058
:1003250003B908031200613002057F2D0200617FC9
:10033500202008F87F2B2006F322920280CF286E1A
:10034500756C6C2900D2011200263001F8C20178C3
:100355001B30D50108F60200CC2D50434958120038
:10036500262403B405004001E490035E9312005275
:0D037500743A120052D203751B040201B14C
:1004B100020382E493A3F8E493A34003F68001F2DC
:1004C10008DFF48029E493A3F85407240CC8C3334C
:1004D100C4540F4420C8834004F456800146F6DF1B
:1004E100E4800B010204081020408090060EE47E97
:1004F100019360BCA3FF543F30E509541FFEE49310
:10050100A360010ECF54C025E060A840B8E493A3D6
:10051100FAE493A3F8E493A3C8C582C8CAC583CA01
:10052100F0A3C8C582C8CAC583CADFE9DEE780BEB9
:0106100000E9
:10043000BB010CE58229F582E5833AF583E0225081
:1004400006E92582F8E622BBFE06E92582F8E222CB
:0D045000E58229F582E5833AF583E49322E5
:10045D00BB010689828A83F0225002F722BBFE017E
:02046D00F32278
:10046F00FAE6FB0808E6F925F0F618E6CA3AF6228E
:10047F00D083D082F8E4937012740193700DA3A30C
:10048F0093F8740193F5828883E473740293686020
:06049F00EFA3A3A380DF20
:10053100EFB40A07740D12053C740A309811A8999A
:10054100B8130CC2983098FDA899C298B811F6302A
:0705510099FDC299F5992202
:00000001FF
